Example with 1 vins:

5dd20c8c72907356be3e5ed4135b15c8ff10060e9b65e269f46538d29773e45e
010000000145fcc037375a6d5a99ca8ea4efc1b8765a321c3682ce7c8323609400fc5d9300010000006a47304402201e580647f066f52d2a0a78e5f1c9fbb7fd4574ba9b9fc9f8ac18439b39c0c7b602207bf24706bc11655fe0fe4a5455dddae883431c2a8adb6eadd0ac060da57e657701210301b2324698f3dacd6e076be09f06b58e5462d77e902c3304c078f6d6a367df97feffffff0141e0f505000000001976a9147379e3d07f807bcac7909568e9818faa7ebe0f2688acd471ad5b

47304402201e580647f066f52d2a0a78e5f1c9fbb7fd4574ba9b9fc9f8ac18439b39c0c7b602207bf24706bc11655fe0fe4a5455dddae883431c2a8adb6eadd0ac060da57e657701210301b2324698f3dacd6e076be09f06b58e5462d77e902c3304c078f6d6a367df97

47
304402201e580647f066f52d2a0a78e5f1c9fbb7fd4574ba9b9fc9f8ac18439b39c0c7b602207bf24706bc11655fe0fe4a5455dddae883431c2a8adb6eadd0ac060da57e6577
01
210301b2324698f3dacd6e076be09f06b58e5462d77e902c3304c078f6d6a367df97

010000000145fcc037375a6d5a99ca8ea4efc1b8765a321c3682ce7c8323609400fc5d930001000000<len><scriptSig>feffffff0141e0f505000000001976a9147379e3d07f807bcac7909568e9818faa7ebe0f2688acd471ad5b

010000000145fcc037375a6d5a99ca8ea4efc1b8765a321c3682ce7c8323609400fc5d930001000000
1976a914c48e8a082b363ba9a23d74a6a7ab35fe4f1174db88ac
feffffff0141e0f505000000001976a9147379e3d07f807bcac7909568e9818faa7ebe0f2688acd471ad5b
010000000145fcc037375a6d5a99ca8ea4efc1b8765a321c3682ce7c8323609400fc5d9300010000001976a914c48e8a082b363ba9a23d74a6a7ab35fe4f1174db88acfeffffff0141e0f505000000001976a9147379e3d07f807bcac7909568e9818faa7ebe0f2688acd471ad5b01000000

---

Example with 2 vins:

01000000025fbf889dec145e5f38a3de556b0b9300eb22bc9bb5d483aaf7e70a521223d196020000006b48304502210081e2f6b1d655d885a50ab0dc66fbe7fcac2f53d3c96646a943c1d61a056113800220326f6ed198c5b4a491ba30dc6ab473c213d12a047ba38309018aececc10e767701210301b2324698f3dacd6e076be09f06b58e5462d77e902c3304c078f6d6a367df97feffffff258058f9fdeb4dd403c08fc81f2bccfd8ac998f3ff99f1088f6e480c0805ed3f020000006a47304402201e89d2cbc3bdbf610a4cba227c523a4bc4a7c738a40d262026148b8b668da29b02200d4cba0383369ad70d50276bb201d00f09538842df8e2e7999e842615d85b27901210301b2324698f3dacd6e076be09f06b58e5462d77e902c3304c078f6d6a367df97feffffff0190e0bc10000000001976a9147379e3d07f807bcac7909568e9818faa7ebe0f2688ac36f2ac5b

48304502210081e2f6b1d655d885a50ab0dc66fbe7fcac2f53d3c96646a943c1d61a056113800220326f6ed198c5b4a491ba30dc6ab473c213d12a047ba38309018aececc10e767701210301b2324698f3dacd6e076be09f06b58e5462d77e902c3304c078f6d6a367df97

vin0:

48
304502210081e2f6b1d655d885a50ab0dc66fbe7fcac2f53d3c96646a943c1d61a056113800220326f6ed198c5b4a491ba30dc6ab473c213d12a047ba38309018aececc10e7677
01
210301b2324698f3dacd6e076be09f06b58e5462d77e902c3304c078f6d6a367df97

01000000025fbf889dec145e5f38a3de556b0b9300eb22bc9bb5d483aaf7e70a521223d19602000000<len><scriptSig>feffffff258058f9fdeb4dd403c08fc81f2bccfd8ac998f3ff99f1088f6e480c0805ed3f020000006a47304402201e89d2cbc3bdbf610a4cba227c523a4bc4a7c738a40d262026148b8b668da29b02200d4cba0383369ad70d50276bb201d00f09538842df8e2e7999e842615d85b27901210301b2324698f3dacd6e076be09f06b58e5462d77e902c3304c078f6d6a367df97feffffff0190e0bc10000000001976a9147379e3d07f807bcac7909568e9818faa7ebe0f2688ac36f2ac5b

vin1:

47
304402201e89d2cbc3bdbf610a4cba227c523a4bc4a7c738a40d262026148b8b668da29b02200d4cba0383369ad70d50276bb201d00f09538842df8e2e7999e842615d85b279
01
210301b2324698f3dacd6e076be09f06b58e5462d77e902c3304c078f6d6a367df97

01000000025fbf889dec145e5f38a3de556b0b9300eb22bc9bb5d483aaf7e70a521223d19602000000<len><scriptSig>feffffff258058f9fdeb4dd403c08fc81f2bccfd8ac998f3ff99f1088f6e480c0805ed3f02000000<len><scriptSig>feffffff0190e0bc10000000001976a9147379e3d07f807bcac7909568e9818faa7ebe0f2688ac36f2ac5b01000000

01000000025fbf889dec145e5f38a3de556b0b9300eb22bc9bb5d483aaf7e70a521223d19602000000
<len><scriptSig>
feffffff258058f9fdeb4dd403c08fc81f2bccfd8ac998f3ff99f1088f6e480c0805ed3f02000000
<len><scriptSig>
feffffff0190e0bc10000000001976a9147379e3d07f807bcac7909568e9818faa7ebe0f2688ac36f2ac5b01000000


Unsigned Tx:

01000000025fbf889dec145e5f38a3de556b0b9300eb22bc9bb5d483aaf7e70a521223d19602000000
1976a914c48e8a082b363ba9a23d74a6a7ab35fe4f1174db88ac
feffffff258058f9fdeb4dd403c08fc81f2bccfd8ac998f3ff99f1088f6e480c0805ed3f02000000
1976a914c48e8a082b363ba9a23d74a6a7ab35fe4f1174db88ac
feffffff0190e0bc10000000001976a9147379e3d07f807bcac7909568e9818faa7ebe0f2688ac36f2ac5b01000000

Check 0:

01000000025fbf889dec145e5f38a3de556b0b9300eb22bc9bb5d483aaf7e70a521223d19602000000
1976a914c48e8a082b363ba9a23d74a6a7ab35fe4f1174db88ac
feffffff258058f9fdeb4dd403c08fc81f2bccfd8ac998f3ff99f1088f6e480c0805ed3f02000000
00
feffffff0190e0bc10000000001976a9147379e3d07f807bcac7909568e9818faa7ebe0f2688ac36f2ac5b01000000

Check 1:

01000000025fbf889dec145e5f38a3de556b0b9300eb22bc9bb5d483aaf7e70a521223d19602000000
00
feffffff258058f9fdeb4dd403c08fc81f2bccfd8ac998f3ff99f1088f6e480c0805ed3f02000000
1976a914c48e8a082b363ba9a23d74a6a7ab35fe4f1174db88ac
feffffff0190e0bc10000000001976a9147379e3d07f807bcac7909568e9818faa7ebe0f2688ac36f2ac5b01000000
